{
  "contractName": "Telecom",
  "abi": [
    {
      "inputs": [
        {
          "internalType": "address",
          "name": "_provider",
          "type": "address"
        }
      ],
      "stateMutability": "nonpayable",
      "type": "constructor"
    },
    {
      "inputs": [],
      "name": "delayCredit",
      "outputs": [
        {
          "internalType": "uint256",
          "name": "",
          "type": "uint256"
        }
      ],
      "stateMutability": "view",
      "type": "function",
      "constant": true
    },
    {
      "inputs": [],
      "name": "owner",
      "outputs": [
        {
          "internalType": "address payable",
          "name": "",
          "type": "address"
        }
      ],
      "stateMutability": "view",
      "type": "function",
      "constant": true
    },
    {
      "inputs": [],
      "name": "provider",
      "outputs": [
        {
          "internalType": "address",
          "name": "",
          "type": "address"
        }
      ],
      "stateMutability": "view",
      "type": "function",
      "constant": true
    },
    {
      "inputs": [],
      "name": "refundAmount",
      "outputs": [
        {
          "internalType": "uint256",
          "name": "",
          "type": "uint256"
        }
      ],
      "stateMutability": "view",
      "type": "function",
      "constant": true
    },
    {
      "inputs": [],
      "name": "status",
      "outputs": [
        {
          "internalType": "enum Telecom.TelecomStatus",
          "name": "",
          "type": "uint8"
        }
      ],
      "stateMutability": "view",
      "type": "function",
      "constant": true
    },
    {
      "inputs": [],
      "name": "storedValue",
      "outputs": [
        {
          "internalType": "uint256",
          "name": "",
          "type": "uint256"
        }
      ],
      "stateMutability": "view",
      "type": "function",
      "constant": true
    },
    {
      "stateMutability": "payable",
      "type": "receive",
      "payable": true
    },
    {
      "inputs": [],
      "name": "getBalance",
      "outputs": [
        {
          "internalType": "uint256",
          "name": "",
          "type": "uint256"
        }
      ],
      "stateMutability": "view",
      "type": "function",
      "constant": true
    },
    {
      "inputs": [
        {
          "internalType": "uint256",
          "name": "amountInWei",
          "type": "uint256"
        }
      ],
      "name": "subscribeTelecom",
      "outputs": [],
      "stateMutability": "payable",
      "type": "function",
      "payable": true
    },
    {
      "inputs": [],
      "name": "periodends",
      "outputs": [],
      "stateMutability": "nonpayable",
      "type": "function"
    },
    {
      "inputs": [
        {
          "internalType": "bool",
          "name": "isDueToNatureSafety",
          "type": "bool"
        },
        {
          "internalType": "uint256",
          "name": "delayInMinutes",
          "type": "uint256"
        }
      ],
      "name": "delay",
      "outputs": [],
      "stateMutability": "nonpayable",
      "type": "function"
    },
    {
      "inputs": [
        {
          "internalType": "bool",
          "name": "isCancelledByCustomer",
          "type": "bool"
        },
        {
          "internalType": "uint256",
          "name": "cancellationTimeInMinutes",
          "type": "uint256"
        }
      ],
      "name": "cancel",
      "outputs": [],
      "stateMutability": "nonpayable",
      "type": "function"
    },
    {
      "inputs": [],
      "name": "getDelayCredit",
      "outputs": [
        {
          "internalType": "uint256",
          "name": "",
          "type": "uint256"
        }
      ],
      "stateMutability": "view",
      "type": "function",
      "constant": true
    },
    {
      "inputs": [],
      "name": "getRefundAmount",
      "outputs": [
        {
          "internalType": "uint256",
          "name": "",
          "type": "uint256"
        }
      ],
      "stateMutability": "view",
      "type": "function",
      "constant": true
    }
  ],
  "bytecode": "0x608060405234801561001057600080fd5b50604051610cfb380380610cfb833981810160405281019061003291906100dc565b80600060016101000a81548173ffffffffffffffffffffffffffffffffffffffff021916908373ffffffffffffffffffffffffffffffffffffffff16021790555050610109565b600080fd5b600073ffffffffffffffffffffffffffffffffffffffff82169050919050565b60006100a98261007e565b9050919050565b6100b98161009e565b81146100c457600080fd5b50565b6000815190506100d6816100b0565b92915050565b6000602082840312156100f2576100f1610079565b5b6000610100848285016100c7565b91505092915050565b610be3806101186000396000f3fe6080604052600436106100c65760003560e01c80636d619daa1161007f5780638da5cb5b116100595780638da5cb5b14610242578063ad33513f1461026d578063d350fe1f14610298578063d3563205146102c3576100cd565b80636d619daa146101c3578063709b5e4f146101ee5780637ea1511b14610219576100cd565b8063085d4883146100d257806312065fe0146100fd57806315e25aeb14610128578063200d2ed2146101445780632ff13db71461016f578063638d35ba1461019a576100cd565b366100cd57005b600080fd5b3480156100de57600080fd5b506100e76102da565b6040516100f491906107a2565b60405180910390f35b34801561010957600080fd5b50610112610300565b60405161011f91906107d6565b60405180910390f35b610142600480360381019061013d9190610822565b610308565b005b34801561015057600080fd5b5061015961034d565b60405161016691906108c6565b60405180910390f35b34801561017b57600080fd5b5061018461035e565b60405161019191906107d6565b60405180910390f35b3480156101a657600080fd5b506101c160048036038101906101bc9190610919565b610368565b005b3480156101cf57600080fd5b506101d8610486565b6040516101e591906107d6565b60405180910390f35b3480156101fa57600080fd5b5061020361048c565b60405161021091906107d6565b60405180910390f35b34801561022557600080fd5b50610240600480360381019061023b9190610919565b610492565b005b34801561024e57600080fd5b50610257610622565b604051610264919061097a565b60405180910390f35b34801561027957600080fd5b50610282610648565b60405161028f91906107d6565b60405180910390f35b3480156102a457600080fd5b506102ad61064e565b6040516102ba91906107d6565b60405180910390f35b3480156102cf57600080fd5b506102d8610658565b005b600060019054906101000a900473ffffffffffffffffffffffffffffffffffffffff1681565b600047905090565b80341461034a576040517f08c379a0000000000000000000000000000000000000000000000000000000008152600401610341906109f2565b60405180910390fd5b50565b60008054906101000a900460ff1681565b6000600254905090565b60016000806101000a81548160ff0219169083600281111561038d5761038c61084f565b5b0217905550600060018190555081156103ad57600060018190555061042d565b60b48110156103c357600060018190555061042c565b60b481101580156103d5575061016881105b156103ee57673782dace9d90000060028190555061042b565b6101688110158015610401575061021c81105b1561041a57676124fee993bc000060028190555061042a565b670de0b6b3a76400006002819055505b5b5b5b60006002541115610482573373ffffffffffffffffffffffffffffffffffffffff166108fc6002549081150290604051600060405180830381858888f19350505050158015610480573d6000803e3d6000fd5b505b5050565b60045481565b60025481565b600060028111156104a6576104a561084f565b5b60008054906101000a900460ff1660028111156104c6576104c561084f565b5b14806105035750600160028111156104e1576104e061084f565b5b60008054906101000a900460ff1660028111156105015761050061084f565b5b145b610542576040517f08c379a000000000000000000000000000000000000000000000000000000000815260040161053990610a5e565b60405180910390fd5b60026000806101000a81548160ff021916908360028111156105675761056661084f565b5b021790555081156105ab57607881101561058757476001819055506105a6565b6002476105949190610adc565b4761059f9190610b0d565b6001819055505b6105c9565b607881106105c05760006001819055506105c8565b476001819055505b5b6000600154111561061e573373ffffffffffffffffffffffffffffffffffffffff166108fc6001549081150290604051600060405180830381858888f1935050505015801561061c573d6000803e3d6000fd5b505b5050565b600360009054906101000a900473ffffffffffffffffffffffffffffffffffffffff1681565b60015481565b6000600154905090565b6000600281111561066c5761066b61084f565b5b60008054906101000a900460ff16600281111561068c5761068b61084f565b5b146106cc576040517f08c379a00000000000000000000000000000000000000000000000000000000081526004016106c390610b8d565b60405180910390fd5b60008060006101000a81548160ff021916908360028111156106f1576106f061084f565b5b0217905550600060019054906101000a900473ffffffffffffffffffffffffffffffffffffffff1673ffffffffffffffffffffffffffffffffffffffff166108fc479081150290604051600060405180830381858888f1935050505015801561075e573d6000803e3d6000fd5b50565b600073ffffffffffffffffffffffffffffffffffffffff82169050919050565b600061078c82610761565b9050919050565b61079c81610781565b82525050565b60006020820190506107b76000830184610793565b92915050565b6000819050919050565b6107d0816107bd565b82525050565b60006020820190506107eb60008301846107c7565b92915050565b600080fd5b6107ff816107bd565b811461080a57600080fd5b50565b60008135905061081c816107f6565b92915050565b600060208284031215610838576108376107f1565b5b60006108468482850161080d565b91505092915050565b7f4e487b7100000000000000000000000000000000000000000000000000000000600052602160045260246000fd5b6003811061088f5761088e61084f565b5b50565b60008190506108a08261087e565b919050565b60006108b082610892565b9050919050565b6108c0816108a5565b82525050565b60006020820190506108db60008301846108b7565b92915050565b60008115159050919050565b6108f6816108e1565b811461090157600080fd5b50565b600081359050610913816108ed565b92915050565b600080604083850312156109305761092f6107f1565b5b600061093e85828601610904565b925050602061094f8582860161080d565b9150509250929050565b600061096482610761565b9050919050565b61097481610959565b82525050565b600060208201905061098f600083018461096b565b92915050565b600082825260208201905092915050565b7f496e636f727265637420616d6f756e742073656e740000000000000000000000600082015250565b60006109dc601583610995565b91506109e7826109a6565b602082019050919050565b60006020820190508181036000830152610a0b816109cf565b9050919050565b7f54656c65636f6d2063616e6e6f742062652063616e63656c6c65640000000000600082015250565b6000610a48601b83610995565b9150610a5382610a12565b602082019050919050565b60006020820190508181036000830152610a7781610a3b565b9050919050565b7f4e487b7100000000000000000000000000000000000000000000000000000000600052601260045260246000fd5b7f4e487b7100000000000000000000000000000000000000000000000000000000600052601160045260246000fd5b6000610ae7826107bd565b9150610af2836107bd565b925082610b0257610b01610a7e565b5b828204905092915050565b6000610b18826107bd565b9150610b23836107bd565b9250828203905081811115610b3b57610b3a610aad565b5b92915050565b7f54656c65636f6d206973206e6f74206f6e2074696d6500000000000000000000600082015250565b6000610b77601683610995565b9150610b8282610b41565b602082019050919050565b60006020820190508181036000830152610ba681610b6a565b905091905056fea2646970667358221220decc4eb9b7df7205ce5ec2ba16f9f2b2aaa2f27a52a7d03534e0db39f2fffefc64736f6c63430008120033",
  "immutableReferences": {},
  "source": "// SPDX-License-Identifier: MIT\npragma solidity ^0.8.18;\n\ncontract Telecom {\n    // enumeration to represent status of Telecom\n    enum TelecomStatus { good, poor, Cancelled }\n    TelecomStatus public status;\n    \n    // variable to store address of provider\n    address public provider;\n    \n    // variables to store refund and delay credit amounts\n    uint256 public refundAmount;\n    uint256 public delayCredit;\n    \n    // variable to store address of contract owner\n    address payable public owner;\n    \n    // variable to store a value for testing purposes\n    uint public storedValue;\n\n    // constructor function that takes address of provider as a parameter\n    constructor(address _provider) {\n        provider = _provider;\n    }\n\n    // constructor function that takes address of cusotmer as a parameter\n    // constructor(address _cusotmer) {\n    //     cusotmer = _cusotmer;\n    // }\n\n    // fallback function that can receive Ether\n    receive() external payable{}    \n\n    // function to get balance of contract\n    function getBalance() external view returns (uint){\n        return address(this).balance;\n    }\n\n    // function to add balance to contract from customer account\n    function subscribeTelecom(uint256 amountInWei) public payable {\n    // Ensure the amount sent is correct\n    require(msg.value == amountInWei, \"Incorrect amount sent\");\n    // The amount sent is automatically added to the contract's balance\n}\n\n    // function to periodends Telecom\n    function periodends() public {\n        // Require that Telecom is on time\n        require(status == TelecomStatus.good, \"Telecom is not on time\");\n        // Set status of Telecom to good\n        status = TelecomStatus.good;\n        // Transfer balance of contract to provider\n        payable(provider).transfer(address(this).balance);\n    }\n\n    // function to handle Telecom delays\n    function delay(bool isDueToNatureSafety, uint256 delayInMinutes) public {\n        // Set status of Telecom to poor\n        status = TelecomStatus.poor;\n        // Initialize refund amount to zero\n        refundAmount = 0;\n        // Determine amount of delay credit based on delay time\n        if (isDueToNatureSafety) {\n            // No refund or payment, booking on next Telecom\n            refundAmount = 0;\n        } else if (delayInMinutes < 180) {\n            // No extra payment\n            refundAmount = 0;\n        } else if (delayInMinutes >= 180 && delayInMinutes < 360) {\n            // 400 CAD credit towards provider\n            delayCredit = 4000000000000000000;\n        } else if (delayInMinutes >= 360 && delayInMinutes < 540) {\n            // 700 CAD credit towards provider\n            delayCredit = 7000000000000000000;\n        } else {\n            // 1000 CAD credit towards provider\n            delayCredit = 1000000000000000000;\n        }\n        \n        // If there is delay credit, transfer it to sender\n        if (delayCredit > 0) {\n            payable(msg.sender).transfer(delayCredit);         \n        }\n    }\n\n    // function to handle Telecom cancellations\n    function cancel(bool isCancelledByCustomer, uint256 cancellationTimeInMinutes) public {\n        // Require that Telecom is either good or poor\n        require(status == TelecomStatus.good || status == TelecomStatus.poor, \"Telecom cannot be cancelled\");\n        // Set status of Telecom to Cancelled\n        status = TelecomStatus.Cancelled;\n        \n        // Calculate refund amount based on cancellation time and reason\n        if (isCancelledByCustomer) {\n            if (cancellationTimeInMinutes < 120) {\n                // Full refund\n                refundAmount = address(this).balance;\n            } else {\n                // Penalty and then balance will get refunded\n                refundAmount = address(this).balance - (address(this).balance / 2);\n        }\n        } else {\n            if (cancellationTimeInMinutes >= 120) {\n                // Booking on next Telecom\n                refundAmount = 0;\n            } else {\n                // Full refund\n                refundAmount = address(this).balance;\n            }\n        }\n        \n        // If there is a refund amount, transfer to sender\n        if (refundAmount > 0) {\n            payable(msg.sender).transfer(refundAmount);\n        }        \n    }\n\n    // Function to get delay credit\n    function getDelayCredit() public view returns (uint256) {\n        return delayCredit;\n    }\n\n    // Function to get refund amount\n    function getRefundAmount() public view returns (uint256) {\n        return refundAmount;\n    }\n}",
  "sourcePath": "D:\\Prasanth\\CCBC2\\606 - Integrated services using smart contract\\TelcomFinal\\Project\\Telcom\\contracts\\telecom.sol",
  "compiler": {
    "name": "solc",
    "version": "0.8.18+commit.87f61d96.Emscripten.clang"
  },
  "schemaVersion": "3.4.16",
  "updatedAt": "2023-12-14T16:03:50.988Z",
  "networkType": "ethereum",
  "devdoc": {
    "kind": "dev",
    "methods": {},
    "version": 1
  },
  "userdoc": {
    "kind": "user",
    "methods": {},
    "version": 1
  }
}